{
  "_format": "hh-sol-artifact-1",
  "contractName": "Agrichain",
  "sourceName": "contracts/Agrichain.sol",
  "abi": [
    {
      "inputs": [],
      "stateMutability": "nonpayable",
      "type": "constructor"
    },
    {
      "anonymous": false,
      "inputs": [
        {
          "indexed": true,
          "internalType": "string",
          "name": "certId",
          "type": "string"
        },
        {
          "indexed": true,
          "internalType": "string",
          "name": "productId",
          "type": "string"
        },
        {
          "indexed": true,
          "internalType": "string",
          "name": "stepId",
          "type": "string"
        },
        {
          "indexed": false,
          "internalType": "address",
          "name": "issuedBy",
          "type": "address"
        },
        {
          "indexed": false,
          "internalType": "string",
          "name": "metadata",
          "type": "string"
        }
      ],
      "name": "CertificateIssued",
      "type": "event"
    },
    {
      "anonymous": false,
      "inputs": [
        {
          "indexed": true,
          "internalType": "string",
          "name": "productId",
          "type": "string"
        },
        {
          "indexed": true,
          "internalType": "string",
          "name": "stepId",
          "type": "string"
        },
        {
          "indexed": false,
          "internalType": "address",
          "name": "requester",
          "type": "address"
        },
        {
          "indexed": false,
          "internalType": "string",
          "name": "certType",
          "type": "string"
        }
      ],
      "name": "CertificateRequested",
      "type": "event"
    },
    {
      "anonymous": false,
      "inputs": [
        {
          "indexed": true,
          "internalType": "string",
          "name": "productId",
          "type": "string"
        },
        {
          "indexed": false,
          "internalType": "address",
          "name": "from",
          "type": "address"
        },
        {
          "indexed": false,
          "internalType": "address",
          "name": "to",
          "type": "address"
        }
      ],
      "name": "OwnershipTransferred",
      "type": "event"
    },
    {
      "anonymous": false,
      "inputs": [
        {
          "indexed": true,
          "internalType": "string",
          "name": "id",
          "type": "string"
        },
        {
          "indexed": false,
          "internalType": "string",
          "name": "name",
          "type": "string"
        },
        {
          "indexed": false,
          "internalType": "address",
          "name": "owner",
          "type": "address"
        }
      ],
      "name": "ProductRegistered",
      "type": "event"
    },
    {
      "anonymous": false,
      "inputs": [
        {
          "indexed": true,
          "internalType": "string",
          "name": "id",
          "type": "string"
        },
        {
          "indexed": false,
          "internalType": "enum Agrichain.ProductStatus",
          "name": "newStatus",
          "type": "uint8"
        }
      ],
      "name": "ProductStatusChanged",
      "type": "event"
    },
    {
      "anonymous": false,
      "inputs": [
        {
          "indexed": true,
          "internalType": "string",
          "name": "productId",
          "type": "string"
        },
        {
          "indexed": false,
          "internalType": "string",
          "name": "stepId",
          "type": "string"
        },
        {
          "indexed": false,
          "internalType": "enum Agrichain.ProductStatus",
          "name": "action",
          "type": "uint8"
        }
      ],
      "name": "SupplyChainStepAdded",
      "type": "event"
    },
    {
      "inputs": [
        {
          "internalType": "string",
          "name": "productId",
          "type": "string"
        },
        {
          "internalType": "string",
          "name": "stepId",
          "type": "string"
        },
        {
          "internalType": "enum Agrichain.ProductStatus",
          "name": "action",
          "type": "uint8"
        },
        {
          "internalType": "string",
          "name": "description",
          "type": "string"
        },
        {
          "internalType": "string",
          "name": "location",
          "type": "string"
        },
        {
          "internalType": "int256",
          "name": "temperature",
          "type": "int256"
        },
        {
          "internalType": "int256",
          "name": "humidity",
          "type": "int256"
        }
      ],
      "name": "addSupplyChainStep",
      "outputs": [],
      "stateMutability": "nonpayable",
      "type": "function"
    },
    {
      "inputs": [],
      "name": "admin",
      "outputs": [
        {
          "internalType": "address",
          "name": "",
          "type": "address"
        }
      ],
      "stateMutability": "view",
      "type": "function"
    },
    {
      "inputs": [
        {
          "internalType": "uint256",
          "name": "",
          "type": "uint256"
        }
      ],
      "name": "certificateIds",
      "outputs": [
        {
          "internalType": "string",
          "name": "",
          "type": "string"
        }
      ],
      "stateMutability": "view",
      "type": "function"
    },
    {
      "inputs": [
        {
          "internalType": "string",
          "name": "",
          "type": "string"
        }
      ],
      "name": "certificates",
      "outputs": [
        {
          "internalType": "string",
          "name": "id",
          "type": "string"
        },
        {
          "internalType": "address",
          "name": "issuedBy",
          "type": "address"
        },
        {
          "internalType": "uint256",
          "name": "issuedDate",
          "type": "uint256"
        },
        {
          "internalType": "uint256",
          "name": "expiryDate",
          "type": "uint256"
        }
      ],
      "stateMutability": "view",
      "type": "function"
    },
    {
      "inputs": [
        {
          "internalType": "string",
          "name": "productId",
          "type": "string"
        }
      ],
      "name": "getOwnershipHistory",
      "outputs": [
        {
          "internalType": "address[]",
          "name": "",
          "type": "address[]"
        }
      ],
      "stateMutability": "view",
      "type": "function"
    },
    {
      "inputs": [
        {
          "internalType": "string",
          "name": "productId",
          "type": "string"
        }
      ],
      "name": "getProductCertificates",
      "outputs": [
        {
          "internalType": "string[]",
          "name": "",
          "type": "string[]"
        }
      ],
      "stateMutability": "view",
      "type": "function"
    },
    {
      "inputs": [],
      "name": "getProductCount",
      "outputs": [
        {
          "internalType": "uint256",
          "name": "",
          "type": "uint256"
        }
      ],
      "stateMutability": "view",
      "type": "function"
    },
    {
      "inputs": [
        {
          "internalType": "string",
          "name": "productId",
          "type": "string"
        }
      ],
      "name": "getProductSupplyChain",
      "outputs": [
        {
          "internalType": "string[]",
          "name": "",
          "type": "string[]"
        }
      ],
      "stateMutability": "view",
      "type": "function"
    },
    {
      "inputs": [
        {
          "internalType": "string",
          "name": "productId",
          "type": "string"
        },
        {
          "internalType": "string",
          "name": "stepId",
          "type": "string"
        }
      ],
      "name": "getStepCertificates",
      "outputs": [
        {
          "internalType": "string[]",
          "name": "",
          "type": "string[]"
        }
      ],
      "stateMutability": "view",
      "type": "function"
    },
    {
      "inputs": [
        {
          "internalType": "string",
          "name": "certId",
          "type": "string"
        },
        {
          "internalType": "string",
          "name": "productId",
          "type": "string"
        },
        {
          "internalType": "string",
          "name": "stepId",
          "type": "string"
        },
        {
          "internalType": "uint256",
          "name": "expiryDate",
          "type": "uint256"
        },
        {
          "internalType": "string",
          "name": "metadata",
          "type": "string"
        }
      ],
      "name": "issueCertificate",
      "outputs": [],
      "stateMutability": "nonpayable",
      "type": "function"
    },
    {
      "inputs": [
        {
          "internalType": "string",
          "name": "",
          "type": "string"
        },
        {
          "internalType": "uint256",
          "name": "",
          "type": "uint256"
        }
      ],
      "name": "productCertificates",
      "outputs": [
        {
          "internalType": "string",
          "name": "",
          "type": "string"
        }
      ],
      "stateMutability": "view",
      "type": "function"
    },
    {
      "inputs": [
        {
          "internalType": "uint256",
          "name": "",
          "type": "uint256"
        }
      ],
      "name": "productIds",
      "outputs": [
        {
          "internalType": "string",
          "name": "",
          "type": "string"
        }
      ],
      "stateMutability": "view",
      "type": "function"
    },
    {
      "inputs": [
        {
          "internalType": "string",
          "name": "",
          "type": "string"
        },
        {
          "internalType": "uint256",
          "name": "",
          "type": "uint256"
        }
      ],
      "name": "productSupplyChain",
      "outputs": [
        {
          "internalType": "string",
          "name": "",
          "type": "string"
        }
      ],
      "stateMutability": "view",
      "type": "function"
    },
    {
      "inputs": [
        {
          "internalType": "string",
          "name": "",
          "type": "string"
        }
      ],
      "name": "products",
      "outputs": [
        {
          "internalType": "string",
          "name": "id",
          "type": "string"
        },
        {
          "internalType": "string",
          "name": "name",
          "type": "string"
        },
        {
          "internalType": "string",
          "name": "description",
          "type": "string"
        },
        {
          "internalType": "string",
          "name": "productType",
          "type": "string"
        },
        {
          "internalType": "string",
          "name": "imageUrl",
          "type": "string"
        },
        {
          "internalType": "string",
          "name": "batchId",
          "type": "string"
        },
        {
          "internalType": "string",
          "name": "qrCode",
          "type": "string"
        },
        {
          "internalType": "uint256",
          "name": "createdAt",
          "type": "uint256"
        },
        {
          "internalType": "string",
          "name": "currentLocation",
          "type": "string"
        },
        {
          "internalType": "enum Agrichain.ProductStatus",
          "name": "status",
          "type": "uint8"
        },
        {
          "internalType": "address",
          "name": "currentOwner",
          "type": "address"
        },
        {
          "internalType": "uint256",
          "name": "verificationCount",
          "type": "uint256"
        },
        {
          "internalType": "uint256",
          "name": "lastVerified",
          "type": "uint256"
        }
      ],
      "stateMutability": "view",
      "type": "function"
    },
    {
      "inputs": [
        {
          "internalType": "string",
          "name": "id",
          "type": "string"
        },
        {
          "internalType": "string",
          "name": "name",
          "type": "string"
        },
        {
          "internalType": "string",
          "name": "description",
          "type": "string"
        },
        {
          "internalType": "string",
          "name": "productType",
          "type": "string"
        },
        {
          "internalType": "string",
          "name": "imageUrl",
          "type": "string"
        },
        {
          "internalType": "string",
          "name": "batchId",
          "type": "string"
        },
        {
          "internalType": "string",
          "name": "qrCode",
          "type": "string"
        },
        {
          "internalType": "string",
          "name": "initialLocation",
          "type": "string"
        }
      ],
      "name": "registerProduct",
      "outputs": [],
      "stateMutability": "nonpayable",
      "type": "function"
    },
    {
      "inputs": [
        {
          "internalType": "string",
          "name": "productId",
          "type": "string"
        },
        {
          "internalType": "string",
          "name": "stepId",
          "type": "string"
        },
        {
          "internalType": "string",
          "name": "certType",
          "type": "string"
        }
      ],
      "name": "requestCertificate",
      "outputs": [],
      "stateMutability": "nonpayable",
      "type": "function"
    },
    {
      "inputs": [
        {
          "internalType": "string",
          "name": "",
          "type": "string"
        },
        {
          "internalType": "string",
          "name": "",
          "type": "string"
        },
        {
          "internalType": "uint256",
          "name": "",
          "type": "uint256"
        }
      ],
      "name": "stepCertificates",
      "outputs": [
        {
          "internalType": "string",
          "name": "",
          "type": "string"
        }
      ],
      "stateMutability": "view",
      "type": "function"
    },
    {
      "inputs": [
        {
          "internalType": "string",
          "name": "",
          "type": "string"
        }
      ],
      "name": "supplyChainSteps",
      "outputs": [
        {
          "internalType": "string",
          "name": "id",
          "type": "string"
        },
        {
          "internalType": "uint256",
          "name": "timestamp",
          "type": "uint256"
        },
        {
          "internalType": "enum Agrichain.ProductStatus",
          "name": "action",
          "type": "uint8"
        },
        {
          "internalType": "string",
          "name": "description",
          "type": "string"
        },
        {
          "internalType": "address",
          "name": "performedBy",
          "type": "address"
        },
        {
          "internalType": "string",
          "name": "location",
          "type": "string"
        },
        {
          "internalType": "int256",
          "name": "temperature",
          "type": "int256"
        },
        {
          "internalType": "int256",
          "name": "humidity",
          "type": "int256"
        },
        {
          "internalType": "bool",
          "name": "verified",
          "type": "bool"
        }
      ],
      "stateMutability": "view",
      "type": "function"
    },
    {
      "inputs": [
        {
          "internalType": "string",
          "name": "productId",
          "type": "string"
        },
        {
          "internalType": "address",
          "name": "newOwner",
          "type": "address"
        }
      ],
      "name": "transferOwnership",
      "outputs": [],
      "stateMutability": "nonpayable",
      "type": "function"
    },
    {
      "inputs": [
        {
          "internalType": "string",
          "name": "productId",
          "type": "string"
        }
      ],
      "name": "verifyProduct",
      "outputs": [],
      "stateMutability": "nonpayable",
      "type": "function"
    }
  ],
  "bytecode": "0x60a0806040523460225733608052611d39908161002882396080518161010c0152f35b600080fdfe6080604052600436101561001257600080fd5b60003560e01c8062b52f29146115ee578062c966be1461150f5780630186a4231461137a5780630909e484146112f25780630f9c774d146112945780632ad315f6146111ae5780633e2357e314610d675780633e8740d014610c6b5780634a348da914610c4d57806368da869b14610c165780638f2b91ea14610b89578063922d569b14610aeb57806392efc4531461099e57806393255d5b146108cc57806399311ccf146107ff578063c0e793c214610615578063cb51bba9146105a3578063d0fe849c14610539578063da431357146101405763f851a440146100f657600080fd5b3461013b57600036600319011261013b576040517f00000000000000000000000000000000000000000000000000000000000000006001600160a01b03168152602090f35b600080fd5b3461013b5760e036600319011261013b576004356001600160401b03811161013b576101709036906004016118a0565b6024356001600160401b03811161013b5761018f9036906004016118a0565b9060443590600982101561013b576064356001600160401b03811161013b576101bc9036906004016118a0565b926084356001600160401b03811161013b576101dc9036906004016118a0565b60405161021161020a855192602081818901956101fa8183896118f6565b810160008152030190205461193f565b1515611b09565b604051600985516102238184866118f6565b6000908301908152829003602001909120015460081c6001600160a01b031633036104f9576040519561027387602081875161026381848b019d8e6118f6565b810160028152030190205461193f565b6104c35760405161012081018181106001600160401b038211176104ad57604052848152846020820198428a52604083019960009a8b958b825260608601908152608086019133835260a08701938a855261030b6102f9602060c08b019860a4358a5260e08c019a60c4358c526101008d019d8e526040519384928392519283916118f6565b81016002815203019020985189611b65565b516001880155516009811015610499578c60098f60209d9a7f066d055e9919609f2819aff5e40a4ba62c69f23fdb965601ae4527d3ff742a609f9c958f979b6104879f9b60089b6103ab6104319f9c6104229d8f9661037e906103746104119e60028a01611ceb565b5160038801611b65565b516004860180546001600160a01b0319166001600160a01b03929092169190911790555160058501611b65565b516006830155516007820155019051151560ff801983541691161790556103ee8b8d886040518092516103df81838d6118f6565b81016004815203019020611c65565b858c6040519283915161040281848b6118f6565b82019081520301902001611ceb565b604051809381928a519283916118f6565b81018d81520301902001611b65565b7faa6ca52045ea13e6e06376a9cfdb554f6c70825a36759f35ff379710c3daf71261047361045e84611c92565b92604051918291604083526040830190611a1d565b61047f8883018b611a42565b0390a2611c92565b926104956040518092611a42565ba280f35b634e487b7160e01b8e52602160045260248efd5b634e487b7160e01b600052604160045260246000fd5b60405162461bcd60e51b815260206004820152600e60248201526d537465702049442065786973747360901b6044820152606490fd5b60405162461bcd60e51b81526020600482015260186024820152774f6e6c79206f776e65722063616e2061646420737465707360401b6044820152606490fd5b3461013b57602061056161054c36611ad8565b929081604051938285809451938492016118f6565b8101600381520301902090815481101561013b5761058561058b9161059f93611a4f565b90611a67565b604051918291602083526020830190611a1d565b0390f35b3461013b57602036600319011261013b5760043560065481101561013b57600060065482101561060157600690527ff652222313e28459528d920b65115c16c04f3efc82aaedc97be59f3f377c0d3f01600061059f61058b83611979565b634e487b7160e01b81526032600452602490fd5b3461013b57604036600319011261013b576004356001600160401b03811161013b576106459036906004016118a0565b6024356001600160a01b038116919082810361013b5760405161067961020a845192602081818801956101fa8183896118f6565b6040516009845161068b8184866118f6565b6000908301908152829003602001909120015460081c6001600160a01b031633036107c0576107406020600c9261072f604051600988516106cd8184876118f6565b82019160008352858160018060a01b039403019020015460081c1695600960405185818b516106fd81838a6118f6565b600090820190815203019020018054610100600160a81b03191660089290921b610100600160a81b0316919091179055565b6040518093819288519283916118f6565b8101600081520301902001908154600160401b8110156104ad577f6840904f5b31827f74e1497360da245f56e530c8c3de3163a2d31f11493273c6936107918260409560016107b295018155611a4f565b81546001600160a01b0360039290921b91821b19169088901b179055611c92565b9382519182526020820152a2005b60405162461bcd60e51b815260206004820152601760248201527627b7363c9037bbb732b91031b0b7103a3930b739b332b960491b6044820152606490fd5b3461013b57602036600319011261013b576004356001600160401b03811161013b5760206108346108639236906004016118a0565b6040519061085261020a8251938581818601966101fa81838a6118f6565b6040519384928392519283916118f6565b81016004815203019020805461087881611cd4565b91610886604051938461187f565b818352602083019060005260206000206000915b8383106108af576040518061059f8782611a78565b6001602081926108be85611979565b81520192019201919061089a565b3461013b57606036600319011261013b576004356001600160401b03811161013b576108fc9036906004016118a0565b6024356001600160401b03811161013b5761091b9036906004016118a0565b6044356001600160401b03811161013b5761099961098b6109856109647f4ee1f8f46dde779bc1a26751ab382334d797c07cc517da2213029e97cc0a577f9436906004016118a0565b9561098061020a60405160208185516101fa8183858a016118f6565b611c92565b93611c92565b936040519182913383611cb2565b0390a3005b3461013b57602036600319011261013b576004356001600160401b03811161013b576109ce9036906004016118a0565b6040516109ec61020a835192602081818701956101fa8183896118f6565b600a6040516020818551610a018183886118f6565b810160008152030190200180546000198114610ad5576001019055604051600b8351610a2e8184866118f6565b82019160008352602081429403019020015560005b6040516020818551610a568183886118f6565b8101600481520301902054811015610ad357806008610ab86020610aa5610a9f600196610a90848a8c6040519384928392519283916118f6565b81016004815203019020611a4f565b50611979565b81604051938285809451938492016118f6565b81016002815203019020018260ff1982541617905501610a43565b005b634e487b7160e01b600052601160045260246000fd5b3461013b57602036600319011261013b576004356001600160401b03811161013b576020610834610b209236906004016118a0565b810160038152030190208054610b3581611cd4565b91610b43604051938461187f565b818352602083019060005260206000206000915b838310610b6c576040518061059f8782611a78565b600160208192610b7b85611979565b815201920192019190610b57565b3461013b57602036600319011261013b576004356001600160401b03811161013b57610bc16020610aa5610c029336906004016118a0565b81016001815203019020610bd481611979565b9060018060a01b03600182015416906003600282015491015490604051948594608086526080860190611a1d565b926020850152604084015260608301520390f35b3461013b576020610c2961054c36611ad8565b8101600481520301902090815481101561013b5761058561058b9161059f93611a4f565b3461013b57600036600319011261013b576020600654604051908152f35b3461013b57602036600319011261013b576004356001600160401b03811161013b576020610aa5610ca09236906004016118a0565b81016002815203019020610120610cb682611979565b9160018101549060ff60028201541690610d50610cd560038301611979565b9360018060a01b0360048401541690610d3d610cf360058601611979565b91600686015497610d3060ff600860078a01549901541698610d206040519d8d8f9e8f9081520190611a1d565b9360208d015260408c0190611a42565b89820360608b0152611a1d565b91608088015286820360a0880152611a1d565b9260c085015260e084015215156101008301520390f35b3461013b5761010036600319011261013b576004356001600160401b03811161013b57610d989036906004016118a0565b6024356001600160401b03811161013b57610db79036906004016118a0565b906044356001600160401b03811161013b57610dd79036906004016118a0565b916064356001600160401b03811161013b57610df79036906004016118a0565b926084356001600160401b03811161013b57610e179036906004016118a0565b9360a4356001600160401b03811161013b57610e379036906004016118a0565b60c4356001600160401b03811161013b57610e569036906004016118a0565b60e4356001600160401b03811161013b57610e759036906004016118a0565b91610e90604051602081816101fa8c838151938492016118f6565b61117557604097885194610ea48a8761187f565b6001865260208601601f198b0136823786511561115f573390528951966101c088018881106001600160401b038211176104ad578b528988528860208901528a8801526060870152608086015260a085015260c08401524260e0840152610100830152600061012083015233610140830152600061016083015260006101808301526101a082015283516020818551610f408183858a016118f6565b81016000815203019020610f55825182611b65565b610f66602083015160018301611b65565b610f768583015160028301611b65565b610f87606083015160038301611b65565b610f98608083015160048301611b65565b610fa960a083015160058301611b65565b610fba60c083015160068301611b65565b60e08201516007820155610fd661010083015160088301611b65565b600981016101208301519160098310156111495761102582610ffd6101a095600c95611ceb565b6101408601518154610100600160a81b03191660089190911b610100600160a81b0316179055565b610160840151600a820155610180840151600b82015501910151908151916001600160401b0383116104ad57600160401b83116104ad57602090825484845580851061112c575b500190600052602060002060005b83811061110f575050600654915050600160401b8110156104ad578060016110a792016006556006611a4f565b6110f957826109807fdc62d3d2ce3bcf04d8c0c001c3d1b9b793bc83b6a8d7de0cb99d77b4504cb5af946110da93611b65565b926110ee8151928284938452830190611a1d565b3360208301520390a2005b634e487b7160e01b600052600060045260246000fd5b82516001600160a01b03168183015560209092019160010161107a565b611143908460005285846000209182019101611b4e565b8761106c565b634e487b7160e01b600052602160045260246000fd5b634e487b7160e01b600052603260045260246000fd5b60405162461bcd60e51b815260206004820152601160248201527050726f647563742049442065786973747360781b6044820152606490fd5b3461013b57604036600319011261013b576004356001600160401b03811161013b576111de9036906004016118a0565b602435906001600160401b03821161013b5761122560206112066112359436906004016118a0565b926040519061085261020a8251938581818601966101fa81838a6118f6565b8101600581520301902090611919565b805461124081611cd4565b9161124e604051938461187f565b818352602083019060005260206000206000915b838310611277576040518061059f8782611a78565b60016020819261128685611979565b815201920192019190611262565b3461013b57602036600319011261013b5760043560075481101561013b57600060075482101561060157600790527fa66cc928b5edb82af9bd49922954155ab7b0942694bea4ce44661d9a8736c68801600061059f61058b83611979565b3461013b57606036600319011261013b576004356001600160401b03811161013b576113229036906004016118a0565b6024356001600160401b03811161013b576113446113609136906004016118a0565b61122560206044359481604051938285809451938492016118f6565b90815481101561013b5761058561058b9161059f93611a4f565b3461013b57602036600319011261013b576004356001600160401b03811161013b576113aa9036906004016118a0565b60405181818093516020819301916113c1926118f6565b8101600081520360200190206113d681611979565b6113e260018301611979565b916113ef60028201611979565b6113fb60038301611979565b9161140860048201611979565b61141460058301611979565b61142060068401611979565b60078401549161143260088601611979565b93600986015497600a87015496600b0154976040519b8c9b6101a08d526101a08d0161145d91611a1d565b8c810360208e015261146e91611a1d565b8b810360408d015261147f91611a1d565b8a810360608c015261149091611a1d565b89810360808b01526114a191611a1d565b88810360a08a01526114b291611a1d565b87810360c08901526114c391611a1d565b9060e08701528581036101008701526114db91611a1d565b926114ed610120860160ff8316611a42565b60081c6001600160a01b03166101408501526101608401526101808301520390f35b3461013b57602036600319011261013b576004356001600160401b03811161013b576115466020610834600c9336906004016118a0565b81016000815203019020016040518060208354918281520190819360005260206000209060005b8181106115cf575050508161158391038261187f565b6040519182916020830190602084525180915260408301919060005b8181106115ad575050500390f35b82516001600160a01b031684528594506020938401939092019160010161159f565b82546001600160a01b031684526020909301926001928301920161156d565b3461013b5760a036600319011261013b576004356001600160401b03811161013b5761161e9036906004016118a0565b6024356001600160401b03811161013b5761163d9036906004016118a0565b6044356001600160401b03811161013b5761165c9036906004016118a0565b906084356001600160401b03811161013b5761167c9036906004016118a0565b9260405161169b61020a845192602081818801956101fa8183896118f6565b6040516116c6835191602081818701946116b68183886118f6565b810160018152030190205461193f565b611845576040519060808201908282106001600160401b038311176104ad57600391604052848352602083013381526040840190428252611732611720602060608801956064358752604051809381928d519283916118f6565b81016001815203019020955186611b65565b516001850180546001600160a01b0319166001600160a01b0392909216919091179055516002840155519101556040518351611789918491602090829061177a8183896118f6565b81016003815203019020611c65565b81845161180c575b5050600754600160401b8110156104ad578060016117b492016007556007611a4f565b9190916110f9576117f96117f36117f383610980611807957faab11f759755ba16c5bb43db2a7b749e61bc75312845f1b5a74cb537eb66063297611b65565b94611c92565b946040519182913383611cb2565b0390a4005b611839611829602061183e94604051809381928a519283916118f6565b8101600581520301902086611919565b611c65565b8481611791565b60405162461bcd60e51b815260206004820152601260248201527143657274696669636174652065786973747360701b6044820152606490fd5b90601f801991011681019081106001600160401b038211176104ad57604052565b81601f8201121561013b578035906001600160401b0382116104ad57604051926118d4601f8401601f19166020018561187f565b8284526020838301011161013b57816000926020809301838601378301015290565b60005b8381106119095750506000910152565b81810151838201526020016118f9565b6020906119339282604051948386809551938492016118f6565b82019081520301902090565b90600182811c9216801561196f575b602083101461195957565b634e487b7160e01b600052602260045260246000fd5b91607f169161194e565b906040519182600082549261198d8461193f565b80845293600181169081156119fb57506001146119b4575b506119b29250038361187f565b565b90506000929192526020600020906000915b8183106119df5750509060206119b292820101386119a5565b60209193508060019154838589010152019101909184926119c6565b9050602092506119b294915060ff191682840152151560051b820101386119a5565b90602091611a36815180928185528580860191016118f6565b601f01601f1916010190565b9060098210156111495752565b805482101561115f5760005260206000200190600090565b906110f957611a7590611979565b90565b602081016020825282518091526040820191602060408360051b8301019401926000915b838310611aab57505050505090565b9091929394602080611ac9600193603f198682030187528951611a1d565b97019301930191939290611a9c565b604060031982011261013b57600435906001600160401b03821161013b57611b02916004016118a0565b9060243590565b15611b1057565b60405162461bcd60e51b8152602060048201526016602482015275141c9bd91d58dd08191bd95cc81b9bdd08195e1a5cdd60521b6044820152606490fd5b818110611b59575050565b60008155600101611b4e565b91909182516001600160401b0381116104ad57611b82825461193f565b601f8111611c28575b506020601f8211600114611bc65781929394600092611bbb575b50508160011b916000199060031b1c1916179055565b015190503880611ba5565b601f1982169083600052806000209160005b818110611c1057509583600195969710611bf7575b505050811b019055565b015160001960f88460031b161c19169055388080611bed565b9192602060018192868b015181550194019201611bd8565b611c5590836000526020600020601f840160051c81019160208510611c5b575b601f0160051c0190611b4e565b38611b8b565b9091508190611c48565b8054600160401b8110156104ad57611c8291600182018155611a4f565b9190916110f9576119b291611b65565b611caa906020604051928284809451938492016118f6565b810103902090565b6001600160a01b039091168152604060208201819052611a7592910190611a1d565b6001600160401b0381116104ad5760051b60200190565b9060098110156111495760ff8019835416911617905556fea2646970667358221220b97dcbf11f9606d8c8c9a705d39f20d9f8f4ce07131c42d6fb191719359e62ce64736f6c634300081c0033",
  "linkReferences": {},
  "deployedLinkReferences": {}
}