{
  "_format": "hh-sol-artifact-1",
  "contractName": "Agrichain",
  "sourceName": "contracts/Agrichain.sol",
  "abi": [
    {
      "inputs": [],
      "stateMutability": "nonpayable",
      "type": "constructor"
    },
    {
      "anonymous": false,
      "inputs": [
        {
          "indexed": true,
          "internalType": "string",
          "name": "certId",
          "type": "string"
        },
        {
          "indexed": true,
          "internalType": "string",
          "name": "productId",
          "type": "string"
        },
        {
          "indexed": true,
          "internalType": "string",
          "name": "stepId",
          "type": "string"
        },
        {
          "indexed": false,
          "internalType": "address",
          "name": "issuedBy",
          "type": "address"
        },
        {
          "indexed": false,
          "internalType": "string",
          "name": "metadata",
          "type": "string"
        }
      ],
      "name": "CertificateIssued",
      "type": "event"
    },
    {
      "anonymous": false,
      "inputs": [
        {
          "indexed": true,
          "internalType": "string",
          "name": "productId",
          "type": "string"
        },
        {
          "indexed": true,
          "internalType": "string",
          "name": "stepId",
          "type": "string"
        },
        {
          "indexed": false,
          "internalType": "address",
          "name": "requester",
          "type": "address"
        }
      ],
      "name": "CertificateRequested",
      "type": "event"
    },
    {
      "anonymous": false,
      "inputs": [
        {
          "indexed": true,
          "internalType": "string",
          "name": "productId",
          "type": "string"
        },
        {
          "indexed": false,
          "internalType": "address",
          "name": "from",
          "type": "address"
        },
        {
          "indexed": false,
          "internalType": "address",
          "name": "to",
          "type": "address"
        }
      ],
      "name": "OwnershipTransferred",
      "type": "event"
    },
    {
      "anonymous": false,
      "inputs": [
        {
          "indexed": true,
          "internalType": "string",
          "name": "id",
          "type": "string"
        },
        {
          "indexed": false,
          "internalType": "string",
          "name": "name",
          "type": "string"
        },
        {
          "indexed": false,
          "internalType": "address",
          "name": "owner",
          "type": "address"
        }
      ],
      "name": "ProductRegistered",
      "type": "event"
    },
    {
      "anonymous": false,
      "inputs": [
        {
          "indexed": true,
          "internalType": "string",
          "name": "id",
          "type": "string"
        },
        {
          "indexed": false,
          "internalType": "enum Agrichain.ProductStatus",
          "name": "newStatus",
          "type": "uint8"
        }
      ],
      "name": "ProductStatusChanged",
      "type": "event"
    },
    {
      "anonymous": false,
      "inputs": [
        {
          "indexed": true,
          "internalType": "string",
          "name": "productId",
          "type": "string"
        },
        {
          "indexed": false,
          "internalType": "string",
          "name": "stepId",
          "type": "string"
        },
        {
          "indexed": false,
          "internalType": "enum Agrichain.ProductStatus",
          "name": "action",
          "type": "uint8"
        }
      ],
      "name": "SupplyChainStepAdded",
      "type": "event"
    },
    {
      "inputs": [
        {
          "internalType": "string",
          "name": "productId",
          "type": "string"
        },
        {
          "internalType": "string",
          "name": "stepId",
          "type": "string"
        },
        {
          "internalType": "enum Agrichain.ProductStatus",
          "name": "action",
          "type": "uint8"
        },
        {
          "internalType": "string",
          "name": "description",
          "type": "string"
        },
        {
          "internalType": "string",
          "name": "location",
          "type": "string"
        },
        {
          "internalType": "int256",
          "name": "temperature",
          "type": "int256"
        },
        {
          "internalType": "int256",
          "name": "humidity",
          "type": "int256"
        }
      ],
      "name": "addSupplyChainStep",
      "outputs": [],
      "stateMutability": "nonpayable",
      "type": "function"
    },
    {
      "inputs": [],
      "name": "admin",
      "outputs": [
        {
          "internalType": "address",
          "name": "",
          "type": "address"
        }
      ],
      "stateMutability": "view",
      "type": "function"
    },
    {
      "inputs": [
        {
          "internalType": "uint256",
          "name": "",
          "type": "uint256"
        }
      ],
      "name": "certificateIds",
      "outputs": [
        {
          "internalType": "string",
          "name": "",
          "type": "string"
        }
      ],
      "stateMutability": "view",
      "type": "function"
    },
    {
      "inputs": [
        {
          "internalType": "string",
          "name": "",
          "type": "string"
        }
      ],
      "name": "certificates",
      "outputs": [
        {
          "internalType": "string",
          "name": "id",
          "type": "string"
        },
        {
          "internalType": "address",
          "name": "issuedBy",
          "type": "address"
        },
        {
          "internalType": "uint256",
          "name": "issuedDate",
          "type": "uint256"
        },
        {
          "internalType": "uint256",
          "name": "expiryDate",
          "type": "uint256"
        }
      ],
      "stateMutability": "view",
      "type": "function"
    },
    {
      "inputs": [
        {
          "internalType": "string",
          "name": "productId",
          "type": "string"
        }
      ],
      "name": "getOwnershipHistory",
      "outputs": [
        {
          "internalType": "address[]",
          "name": "",
          "type": "address[]"
        }
      ],
      "stateMutability": "view",
      "type": "function"
    },
    {
      "inputs": [
        {
          "internalType": "string",
          "name": "productId",
          "type": "string"
        }
      ],
      "name": "getProductCertificates",
      "outputs": [
        {
          "internalType": "string[]",
          "name": "",
          "type": "string[]"
        }
      ],
      "stateMutability": "view",
      "type": "function"
    },
    {
      "inputs": [],
      "name": "getProductCount",
      "outputs": [
        {
          "internalType": "uint256",
          "name": "",
          "type": "uint256"
        }
      ],
      "stateMutability": "view",
      "type": "function"
    },
    {
      "inputs": [
        {
          "internalType": "string",
          "name": "productId",
          "type": "string"
        }
      ],
      "name": "getProductSupplyChain",
      "outputs": [
        {
          "internalType": "string[]",
          "name": "",
          "type": "string[]"
        }
      ],
      "stateMutability": "view",
      "type": "function"
    },
    {
      "inputs": [
        {
          "internalType": "string",
          "name": "productId",
          "type": "string"
        },
        {
          "internalType": "string",
          "name": "stepId",
          "type": "string"
        }
      ],
      "name": "getStepCertificates",
      "outputs": [
        {
          "internalType": "string[]",
          "name": "",
          "type": "string[]"
        }
      ],
      "stateMutability": "view",
      "type": "function"
    },
    {
      "inputs": [
        {
          "internalType": "string",
          "name": "certId",
          "type": "string"
        },
        {
          "internalType": "string",
          "name": "productId",
          "type": "string"
        },
        {
          "internalType": "string",
          "name": "stepId",
          "type": "string"
        },
        {
          "internalType": "uint256",
          "name": "expiryDate",
          "type": "uint256"
        },
        {
          "internalType": "string",
          "name": "metadata",
          "type": "string"
        }
      ],
      "name": "issueCertificate",
      "outputs": [],
      "stateMutability": "nonpayable",
      "type": "function"
    },
    {
      "inputs": [
        {
          "internalType": "string",
          "name": "",
          "type": "string"
        },
        {
          "internalType": "uint256",
          "name": "",
          "type": "uint256"
        }
      ],
      "name": "productCertificates",
      "outputs": [
        {
          "internalType": "string",
          "name": "",
          "type": "string"
        }
      ],
      "stateMutability": "view",
      "type": "function"
    },
    {
      "inputs": [
        {
          "internalType": "uint256",
          "name": "",
          "type": "uint256"
        }
      ],
      "name": "productIds",
      "outputs": [
        {
          "internalType": "string",
          "name": "",
          "type": "string"
        }
      ],
      "stateMutability": "view",
      "type": "function"
    },
    {
      "inputs": [
        {
          "internalType": "string",
          "name": "",
          "type": "string"
        },
        {
          "internalType": "uint256",
          "name": "",
          "type": "uint256"
        }
      ],
      "name": "productSupplyChain",
      "outputs": [
        {
          "internalType": "string",
          "name": "",
          "type": "string"
        }
      ],
      "stateMutability": "view",
      "type": "function"
    },
    {
      "inputs": [
        {
          "internalType": "string",
          "name": "",
          "type": "string"
        }
      ],
      "name": "products",
      "outputs": [
        {
          "internalType": "string",
          "name": "id",
          "type": "string"
        },
        {
          "internalType": "string",
          "name": "name",
          "type": "string"
        },
        {
          "internalType": "string",
          "name": "description",
          "type": "string"
        },
        {
          "internalType": "string",
          "name": "productType",
          "type": "string"
        },
        {
          "internalType": "string",
          "name": "imageUrl",
          "type": "string"
        },
        {
          "internalType": "string",
          "name": "batchId",
          "type": "string"
        },
        {
          "internalType": "string",
          "name": "qrCode",
          "type": "string"
        },
        {
          "internalType": "uint256",
          "name": "createdAt",
          "type": "uint256"
        },
        {
          "internalType": "string",
          "name": "currentLocation",
          "type": "string"
        },
        {
          "internalType": "enum Agrichain.ProductStatus",
          "name": "status",
          "type": "uint8"
        },
        {
          "internalType": "address",
          "name": "currentOwner",
          "type": "address"
        },
        {
          "internalType": "uint256",
          "name": "verificationCount",
          "type": "uint256"
        },
        {
          "internalType": "uint256",
          "name": "lastVerified",
          "type": "uint256"
        }
      ],
      "stateMutability": "view",
      "type": "function"
    },
    {
      "inputs": [
        {
          "internalType": "string",
          "name": "id",
          "type": "string"
        },
        {
          "internalType": "string",
          "name": "name",
          "type": "string"
        },
        {
          "internalType": "string",
          "name": "description",
          "type": "string"
        },
        {
          "internalType": "string",
          "name": "productType",
          "type": "string"
        },
        {
          "internalType": "string",
          "name": "imageUrl",
          "type": "string"
        },
        {
          "internalType": "string",
          "name": "batchId",
          "type": "string"
        },
        {
          "internalType": "string",
          "name": "qrCode",
          "type": "string"
        },
        {
          "internalType": "string",
          "name": "initialLocation",
          "type": "string"
        }
      ],
      "name": "registerProduct",
      "outputs": [],
      "stateMutability": "nonpayable",
      "type": "function"
    },
    {
      "inputs": [
        {
          "internalType": "string",
          "name": "productId",
          "type": "string"
        },
        {
          "internalType": "string",
          "name": "stepId",
          "type": "string"
        }
      ],
      "name": "requestCertificate",
      "outputs": [],
      "stateMutability": "nonpayable",
      "type": "function"
    },
    {
      "inputs": [
        {
          "internalType": "string",
          "name": "",
          "type": "string"
        },
        {
          "internalType": "string",
          "name": "",
          "type": "string"
        },
        {
          "internalType": "uint256",
          "name": "",
          "type": "uint256"
        }
      ],
      "name": "stepCertificates",
      "outputs": [
        {
          "internalType": "string",
          "name": "",
          "type": "string"
        }
      ],
      "stateMutability": "view",
      "type": "function"
    },
    {
      "inputs": [
        {
          "internalType": "string",
          "name": "",
          "type": "string"
        }
      ],
      "name": "supplyChainSteps",
      "outputs": [
        {
          "internalType": "string",
          "name": "id",
          "type": "string"
        },
        {
          "internalType": "uint256",
          "name": "timestamp",
          "type": "uint256"
        },
        {
          "internalType": "enum Agrichain.ProductStatus",
          "name": "action",
          "type": "uint8"
        },
        {
          "internalType": "string",
          "name": "description",
          "type": "string"
        },
        {
          "internalType": "address",
          "name": "performedBy",
          "type": "address"
        },
        {
          "internalType": "string",
          "name": "location",
          "type": "string"
        },
        {
          "internalType": "int256",
          "name": "temperature",
          "type": "int256"
        },
        {
          "internalType": "int256",
          "name": "humidity",
          "type": "int256"
        },
        {
          "internalType": "bool",
          "name": "verified",
          "type": "bool"
        }
      ],
      "stateMutability": "view",
      "type": "function"
    },
    {
      "inputs": [
        {
          "internalType": "string",
          "name": "productId",
          "type": "string"
        },
        {
          "internalType": "address",
          "name": "newOwner",
          "type": "address"
        }
      ],
      "name": "transferOwnership",
      "outputs": [],
      "stateMutability": "nonpayable",
      "type": "function"
    },
    {
      "inputs": [
        {
          "internalType": "string",
          "name": "productId",
          "type": "string"
        }
      ],
      "name": "verifyProduct",
      "outputs": [],
      "stateMutability": "nonpayable",
      "type": "function"
    }
  ],
  "bytecode": "0x60a0806040523460225733608052611cc4908161002882396080518161010c0152f35b600080fdfe6080604052600436101561001257600080fd5b60003560e01c8062b52f2914611544578062c966be146114655780630186a423146112d057806301ff4a2d1461126c5780630909e484146111e45780630f9c774d146111865780632ad315f6146110e15780633e2357e314610c955780633e8740d014610b995780634a348da914610b7b57806368da869b14610b445780638f2b91ea14610ab7578063922d569b14610a1957806392efc453146108cc57806399311ccf146107ff578063c0e793c214610615578063cb51bba9146105a3578063d0fe849c14610539578063da431357146101405763f851a440146100f657600080fd5b3461013b57600036600319011261013b576040517f00000000000000000000000000000000000000000000000000000000000000006001600160a01b03168152602090f35b600080fd5b3461013b5760e036600319011261013b576004356001600160401b03811161013b57610170903690600401611803565b6024356001600160401b03811161013b5761018f903690600401611803565b9060443590600982101561013b576064356001600160401b03811161013b576101bc903690600401611803565b926084356001600160401b03811161013b576101dc903690600401611803565b60405161021161020a855192602081818901956101fa818389611859565b81016000815203019020546118a2565b1515611ab6565b60405160098551610223818486611859565b6000908301908152829003602001909120015460081c6001600160a01b031633036104f9576040519561027387602081875161026381848b019d8e611859565b81016002815203019020546118a2565b6104c35760405161012081018181106001600160401b038211176104ad57604052848152846020820198428a52604083019960009a8b958b825260608601908152608086019133835260a08701938a855261030b6102f9602060c08b019860a4358a5260e08c019a60c4358c526101008d019d8e52604051938492839251928391611859565b81016002815203019020985189611b12565b516001880155516009811015610499578c60098f60209d9a7f066d055e9919609f2819aff5e40a4ba62c69f23fdb965601ae4527d3ff742a609f9c958f979b6104879f9b60089b6103ab6104319f9c6104229d8f9661037e906103746104119e60028a01611c76565b5160038801611b12565b516004860180546001600160a01b0319166001600160a01b03929092169190911790555160058501611b12565b516006830155516007820155019051151560ff801983541691161790556103ee8b8d886040518092516103df81838d611859565b81016004815203019020611c12565b858c6040519283915161040281848b611859565b82019081520301902001611c76565b604051809381928a51928391611859565b81018d81520301902001611b12565b7faa6ca52045ea13e6e06376a9cfdb554f6c70825a36759f35ff379710c3daf71261047361045e84611c3f565b92604051918291604083526040830190611980565b61047f8883018b6119a5565b0390a2611c3f565b9261049560405180926119a5565ba280f35b634e487b7160e01b8e52602160045260248efd5b634e487b7160e01b600052604160045260246000fd5b60405162461bcd60e51b815260206004820152600e60248201526d537465702049442065786973747360901b6044820152606490fd5b60405162461bcd60e51b81526020600482015260186024820152774f6e6c79206f776e65722063616e2061646420737465707360401b6044820152606490fd5b3461013b57602061056161054c36611a85565b92908160405193828580945193849201611859565b8101600381520301902090815481101561013b5761058561058b9161059f936119ff565b90611a17565b604051918291602083526020830190611980565b0390f35b3461013b57602036600319011261013b5760043560065481101561013b57600060065482101561060157600690527ff652222313e28459528d920b65115c16c04f3efc82aaedc97be59f3f377c0d3f01600061059f61058b836118dc565b634e487b7160e01b81526032600452602490fd5b3461013b57604036600319011261013b576004356001600160401b03811161013b57610645903690600401611803565b6024356001600160a01b038116919082810361013b5760405161067961020a845192602081818801956101fa818389611859565b6040516009845161068b818486611859565b6000908301908152829003602001909120015460081c6001600160a01b031633036107c0576107406020600c9261072f604051600988516106cd818487611859565b82019160008352858160018060a01b039403019020015460081c1695600960405185818b516106fd81838a611859565b600090820190815203019020018054610100600160a81b03191660089290921b610100600160a81b0316919091179055565b604051809381928851928391611859565b8101600081520301902001908154600160401b8110156104ad577f6840904f5b31827f74e1497360da245f56e530c8c3de3163a2d31f11493273c6936107918260409560016107b2950181556119ff565b81546001600160a01b0360039290921b91821b19169088901b179055611c3f565b9382519182526020820152a2005b60405162461bcd60e51b815260206004820152601760248201527627b7363c9037bbb732b91031b0b7103a3930b739b332b960491b6044820152606490fd5b3461013b57602036600319011261013b576004356001600160401b03811161013b576020610834610863923690600401611803565b6040519061085261020a8251938581818601966101fa81838a611859565b604051938492839251928391611859565b81016004815203019020805461087881611c5f565b9161088660405193846117e2565b818352602083019060005260206000206000915b8383106108af576040518061059f8782611a25565b6001602081926108be856118dc565b81520192019201919061089a565b3461013b57602036600319011261013b576004356001600160401b03811161013b576108fc903690600401611803565b60405161091a61020a835192602081818701956101fa818389611859565b600a604051602081855161092f818388611859565b810160008152030190200180546000198114610a03576001019055604051600b835161095c818486611859565b82019160008352602081429403019020015560005b6040516020818551610984818388611859565b8101600481520301902054811015610a01578060086109e660206109d36109cd6001966109be848a8c604051938492839251928391611859565b810160048152030190206119ff565b506118dc565b8160405193828580945193849201611859565b81016002815203019020018260ff1982541617905501610971565b005b634e487b7160e01b600052601160045260246000fd5b3461013b57602036600319011261013b576004356001600160401b03811161013b576020610834610a4e923690600401611803565b810160038152030190208054610a6381611c5f565b91610a7160405193846117e2565b818352602083019060005260206000206000915b838310610a9a576040518061059f8782611a25565b600160208192610aa9856118dc565b815201920192019190610a85565b3461013b57602036600319011261013b576004356001600160401b03811161013b57610aef60206109d3610b30933690600401611803565b81016001815203019020610b02816118dc565b9060018060a01b03600182015416906003600282015491015490604051948594608086526080860190611980565b926020850152604084015260608301520390f35b3461013b576020610b5761054c36611a85565b8101600481520301902090815481101561013b5761058561058b9161059f936119ff565b3461013b57600036600319011261013b576020600654604051908152f35b3461013b57602036600319011261013b576004356001600160401b03811161013b5760206109d3610bce923690600401611803565b81016002815203019020610120610be4826118dc565b9160018101549060ff60028201541690610c7e610c03600383016118dc565b9360018060a01b0360048401541690610c6b610c21600586016118dc565b91600686015497610c5e60ff600860078a01549901541698610c4e6040519d8d8f9e8f9081520190611980565b9360208d015260408c01906119a5565b89820360608b0152611980565b91608088015286820360a0880152611980565b9260c085015260e084015215156101008301520390f35b3461013b5761010036600319011261013b576004356001600160401b03811161013b57610cc6903690600401611803565b6024356001600160401b03811161013b57610ce5903690600401611803565b906044356001600160401b03811161013b57610d05903690600401611803565b916064356001600160401b03811161013b57610d25903690600401611803565b926084356001600160401b03811161013b57610d45903690600401611803565b9360a4356001600160401b03811161013b57610d65903690600401611803565b60c4356001600160401b03811161013b57610d84903690600401611803565b60e4356001600160401b03811161013b57610da3903690600401611803565b91610dbe604051602081816101fa8c83815193849201611859565b6110a857604097885194610dd28a876117e2565b6001865260208601601f198b01368237865115611092573390528951966101c088018881106001600160401b038211176104ad578b528988528860208901528a8801526060870152608086015260a085015260c08401524260e0840152610100830152600061012083015233610140830152600061016083015260006101808301526101a082015283516020818551610e6e8183858a01611859565b81016000815203019020610e83825182611b12565b610e94602083015160018301611b12565b610ea48583015160028301611b12565b610eb5606083015160038301611b12565b610ec6608083015160048301611b12565b610ed760a083015160058301611b12565b610ee860c083015160068301611b12565b60e08201516007820155610f0461010083015160088301611b12565b6009810161012083015191600983101561107c57610f5382610f2b6101a095600c95611c76565b6101408601518154610100600160a81b03191660089190911b610100600160a81b0316179055565b610160840151600a820155610180840151600b82015501910151908151916001600160401b0383116104ad57600160401b83116104ad57602090825484845580851061105f575b500190600052602060002060005b838110611042575050600654915050600160401b8110156104ad57806001610fd5920160065560066119ff565b61102c57826110087fdc62d3d2ce3bcf04d8c0c001c3d1b9b793bc83b6a8d7de0cb99d77b4504cb5af9461100d93611b12565b611c3f565b926110218151928284938452830190611980565b3360208301520390a2005b634e487b7160e01b600052600060045260246000fd5b82516001600160a01b031681830155602090920191600101610fa8565b611076908460005285846000209182019101611afb565b87610f9a565b634e487b7160e01b600052602160045260246000fd5b634e487b7160e01b600052603260045260246000fd5b60405162461bcd60e51b815260206004820152601160248201527050726f647563742049442065786973747360781b6044820152606490fd5b3461013b5761112760206111176110f7366119b2565b92906040519061085261020a8251938581818601966101fa81838a611859565b810160058152030190209061187c565b805461113281611c5f565b9161114060405193846117e2565b818352602083019060005260206000206000915b838310611169576040518061059f8782611a25565b600160208192611178856118dc565b815201920192019190611154565b3461013b57602036600319011261013b5760043560075481101561013b57600060075482101561060157600790527fa66cc928b5edb82af9bd49922954155ab7b0942694bea4ce44661d9a8736c68801600061059f61058b836118dc565b3461013b57606036600319011261013b576004356001600160401b03811161013b57611214903690600401611803565b6024356001600160401b03811161013b57611236611252913690600401611803565b6111176020604435948160405193828580945193849201611859565b90815481101561013b5761058561058b9161059f936119ff565b3461013b5761129d6112a3611280366119b2565b929061100861020a60405160208185516101fa8183858a01611859565b91611c3f565b907ff530ca1733c5934650bc355bc7f2a2824128a04970290cea5f5e3a843cbf58726020604051338152a3005b3461013b57602036600319011261013b576004356001600160401b03811161013b57611300903690600401611803565b604051818180935160208193019161131792611859565b81016000815203602001902061132c816118dc565b611338600183016118dc565b91611345600282016118dc565b611351600383016118dc565b9161135e600482016118dc565b61136a600583016118dc565b611376600684016118dc565b600784015491611388600886016118dc565b93600986015497600a87015496600b0154976040519b8c9b6101a08d526101a08d016113b391611980565b8c810360208e01526113c491611980565b8b810360408d01526113d591611980565b8a810360608c01526113e691611980565b89810360808b01526113f791611980565b88810360a08a015261140891611980565b87810360c089015261141991611980565b9060e087015285810361010087015261143191611980565b92611443610120860160ff83166119a5565b60081c6001600160a01b03166101408501526101608401526101808301520390f35b3461013b57602036600319011261013b576004356001600160401b03811161013b5761149c6020610834600c933690600401611803565b81016000815203019020016040518060208354918281520190819360005260206000209060005b81811061152557505050816114d99103826117e2565b6040519182916020830190602084525180915260408301919060005b818110611503575050500390f35b82516001600160a01b03168452859450602093840193909201916001016114f5565b82546001600160a01b03168452602090930192600192830192016114c3565b3461013b5760a036600319011261013b576004356001600160401b03811161013b57611574903690600401611803565b6024356001600160401b03811161013b57611593903690600401611803565b6044356001600160401b03811161013b576115b2903690600401611803565b906084356001600160401b03811161013b576115d2903690600401611803565b926040516115f161020a845192602081818801956101fa818389611859565b60405161161c8351916020818187019461160c818388611859565b81016001815203019020546118a2565b6117a8576040519060808201908282106001600160401b038311176104ad57600391604052848352602083013381526040840190428252611688611676602060608801956064358752604051809381928d51928391611859565b81016001815203019020955186611b12565b516001850180546001600160a01b0319166001600160a01b03929092169190911790555160028401555191015560405183516116df91849160209082906116d0818389611859565b81016003815203019020611c12565b81845161176f575b5050600754600160401b8110156104ad5780600161170a920160075560076119ff565b91909161102c5761174f6117496117498361100861176a957faab11f759755ba16c5bb43db2a7b749e61bc75312845f1b5a74cb537eb66063297611b12565b94611c3f565b94604051918291338352604060208401526040830190611980565b0390a4005b61179c61178c60206117a194604051809381928a51928391611859565b810160058152030190208661187c565b611c12565b84816116e7565b60405162461bcd60e51b815260206004820152601260248201527143657274696669636174652065786973747360701b6044820152606490fd5b90601f801991011681019081106001600160401b038211176104ad57604052565b81601f8201121561013b578035906001600160401b0382116104ad5760405192611837601f8401601f1916602001856117e2565b8284526020838301011161013b57816000926020809301838601378301015290565b60005b83811061186c5750506000910152565b818101518382015260200161185c565b602090611896928260405194838680955193849201611859565b82019081520301902090565b90600182811c921680156118d2575b60208310146118bc57565b634e487b7160e01b600052602260045260246000fd5b91607f16916118b1565b90604051918260008254926118f0846118a2565b808452936001811690811561195e5750600114611917575b50611915925003836117e2565b565b90506000929192526020600020906000915b8183106119425750509060206119159282010138611908565b6020919350806001915483858901015201910190918492611929565b90506020925061191594915060ff191682840152151560051b82010138611908565b9060209161199981518092818552858086019101611859565b601f01601f1916010190565b90600982101561107c5752565b90604060031983011261013b576004356001600160401b03811161013b57826119dd91600401611803565b91602435906001600160401b03821161013b576119fc91600401611803565b90565b80548210156110925760005260206000200190600090565b9061102c576119fc906118dc565b602081016020825282518091526040820191602060408360051b8301019401926000915b838310611a5857505050505090565b9091929394602080611a76600193603f198682030187528951611980565b97019301930191939290611a49565b604060031982011261013b57600435906001600160401b03821161013b57611aaf91600401611803565b9060243590565b15611abd57565b60405162461bcd60e51b8152602060048201526016602482015275141c9bd91d58dd08191bd95cc81b9bdd08195e1a5cdd60521b6044820152606490fd5b818110611b06575050565b60008155600101611afb565b91909182516001600160401b0381116104ad57611b2f82546118a2565b601f8111611bd5575b506020601f8211600114611b735781929394600092611b68575b50508160011b916000199060031b1c1916179055565b015190503880611b52565b601f1982169083600052806000209160005b818110611bbd57509583600195969710611ba4575b505050811b019055565b015160001960f88460031b161c19169055388080611b9a565b9192602060018192868b015181550194019201611b85565b611c0290836000526020600020601f840160051c81019160208510611c08575b601f0160051c0190611afb565b38611b38565b9091508190611bf5565b8054600160401b8110156104ad57611c2f916001820181556119ff565b91909161102c5761191591611b12565b611c5790602060405192828480945193849201611859565b810103902090565b6001600160401b0381116104ad5760051b60200190565b90600981101561107c5760ff8019835416911617905556fea26469706673582212205a14baadc8df737b8b441814f407215c97b517913ab05a9a4bc0c522b30fb86c64736f6c634300081c0033",
  "linkReferences": {},
  "deployedLinkReferences": {}
}